:020000040800F2
:10000000F04400207D020008691F00084D17000819
:10001000651F0008291300083F3600080000000093
:10002000000000000000000000000000E5010008E2
:100030002D1300080000000029020008192D0008F7
:100040009702000897020008970200089123000811
:10005000970200089702000897020008970200081C
:10006000970200089702000897020008970200080C
:1000700097020008970200089702000897020008FC
:1000800097020008970200089702000897020008EC
:1000900097020008970200089702000897020008DC
:1000A00097020008970200089702000897020008CC
:1000B00097020008C92F000897020008970200085D
:1000C00097020008970200089702000897020008AC
:1000D0009702000889340008970200089702000878
:1000E000970200089702000897020008970200088C
:1000F000970200089702000897020008970200087C
:10010000970200089702000835310008970200089E
:10011000970200089702000897020008970200085B
:10012000970200089702000897020008970200084B
:1001300000F002F800F047F80AA090E8000C8244B2
:100140008344AAF10107DA4501D100F03CF8AFF28F
:10015000090EBAE80F0013F0010F18BFFB1A43F0A5
:10016000010318477887000098870000103A24BFE1
:1001700078C878C1FAD8520724BF30C830C144BF0C
:1001800004680C607047000000230024002500264E
:10019000103A28BF78C1FBD8520728BF30C148BFEA
:1001A0000B607047652905F09681002070471FB5E8
:1001B00000F046FB04000020002104F0ABFEE060EC
:1001C0001FBD10B510BD00F063FC1146FFF7EFFF37
:1001D00003F0B4FE00F081FC03B4FFF7F2FF03BCB0
:1001E00003F0AAFA224B19680868B0E8F00F80F310
:1001F0000988BFF36F8F4FF0000080F311884EF035
:100200000D0E70470000000006480068006880F38B
:10021000088862B661B6BFF34F8FBFF36F8F00DF00
:1002200000BF00BF08ED00E0EFF30980BFF36F8F60
:100230000F4B1A6820E9F00F106008B54FF030003E
:1002400080F31188BFF34F8FBFF36F8F04F04CFC26
:100250004FF0000080F31188BDE808401968086875
:10026000B0E8F00F80F30988BFF36F8F704700BFCD
:1002700088000020EFF305807047000009488047A0
:1002800009480047FEE7FEE7FEE7FEE7FEE7FEE778
:10029000FEE7FEE7FEE7FEE704480549054A064B90
:1002A00070470000292D000831010008F03E0020B1
:1002B000F0440020F0400020F04000207047000093
:1002C0000FB4044910B503AA029800F085FA10BCD7
:1002D0005DF814FB340000200FB41CB5074B06AAD0
:1002E0007B4469460090059800F05DFA002069465D
:1002F00000F06CFA1CBC5DF814FB0000E90400007F
:100300002DE9F0410E460446002020622046E168B7
:10031000884730B3252805D0D4E901219047206AC9
:10032000401CF2E7E168204600278847050018D006
:10033000A5F14100192802D820354FF40067324654
:10034000294620462760FFF72DFF40B1012804D041
:10035000F61D26F007060836D8E7361DD6E72846EC
:10036000DAE7206ABDE8F08102F0FF0343EA0322E6
:1003700042EA024200F044BA704770477047704743
:1003800070472DE9FF4F0C461E464FF0FF378BB0EC
:10039000D2E90001DDF860800A908A46C1F30A556F
:1003A00005B93D46002108464FF00000BAF1000FA4
:1003B00000F4400005DA00EB80004FF4400101EA50
:1003C00050004FEA9059B9F1010F00DDB9460A9883
:1003D00050EA4A000ED044F61050A5F2FF354543CE
:1003E0002F14B8F1000F1ED07542291E1EDDC9F171
:1003F00000021CE0B8F1010F4FF0000001D03021E5
:1004000003E0F24305E02154401CB042FBDB3046E0
:100410000022002121540B99C1F80880C1E9002075
:100420000FB0BDE8F08FBD1B6D1CDEE74A4600DA59
:10043000694206A800F08EFA06AB93E8070003AB0A
:1004400083E8070050460A9900F08EFB8DE807000C
:10045000A0F500501F3800900398002D09DD42F2EE
:100460001F014A46084403A90390684600F0EDFDC9
:1004700008E0A0F500504A461F3803A903906846DB
:1004800000F0F7FD8DE807000004000C03D04FF0EA
:10049000FF30410800E01046B8F1000F03D0002201
:1004A000009215461EE0751E05D400F0CDF93032DD
:1004B00062556D1EF9D5B3460122084302D00022D1
:1004C0007F1C04E02078302801D100227F1E002A02
:1004D000099786D01DE0112D07DA00F0B5F930320A
:1004E00062556D1C50EA0102F5D1084302D0009814
:1004F000C8B10EE00021681E05E0235C625C635415
:100500002254401E491C8142F7DBAB46A81B401E0B
:100510000990002004F80B000B98099AC0F8088095
:10052000C0E9002B7CE711264FF0000859E72DE9C0
:10053000F04F88460446D21D22F0070191B0D1E960
:100540000001CDE90A0103F07CF802460B98C00FC8
:1005500001D02D2007E02068810701D52B2002E083
:10056000202101EAC000032A099001D0072A05DBF7
:1005700003464146204600F0ADF90BE120788006A5
:1005800001D5E06900E00620B8F1650F814606D08C
:10059000B8F1660F18D0B8F1670F70D131E00020C4
:1005A000B9F1110F009001DB112301E009F1010302
:1005B0000AAA01A90CA8FFF7E4FEDDE90C700026E9
:1005C00009F10105834647E001204B4600904FF0BA
:1005D00000470AAA01A90CA8FFF7D3FEDDE90DB078
:1005E0000C995D46002610B909F101000D18B9EB10
:1005F000050003D4C0F1FF3609F10105A5EB0900A0
:100600002BE0B9F1010F01DA4FF001090020B9F137
:10061000110F0090484601DD112300E003460AAAAD
:1006200001A90CA8FFF7ADFEDDE90C704D460026D0
:100630008346207800070AD4AB4500DA5D4601A85E
:10064000012D04DD411911F8011C302907D04F4557
:1006500002DA17F1040F04DA012082460FE06D1E62
:10066000EEE7002F02DCED1B3E4403E0781CA842BD
:1006700000DD7D1CB81B00F1010A4FF00047207817
:10068000000703D4AA4501DB4FF0FF3A0021B7F180
:10069000004F0DF143088DF8431024D002202B2386
:1006A000002F01DA7F422D230A21021EA0F1010052
:1006B00000DC5FB197FBF1FC97FBF1F201FB1C7CC6
:1006C00017460CF1300C08F801CDEEE7A8F1010057
:1006D00003702188090501D5452100E06521A0F1BD
:1006E000010800F8011C09980FA9A1EB0807FF1DDC
:1006F00000B10120411901EBEA70A1693844081AE0
:10070000401EA0612078C00602D42046AFF30080CE
:10071000099828B1D4E901219047206A401C206241
:100720002078C00622D52046AFF300801EE0002EC0
:1007300004DBB34502DD01A8805D00E03020D4E990
:1007400001219047206A401C2062761CAAF101001A
:100750005FEA000A0AD100F073F8C0680168405CE3
:10076000D4E901219047206A401C2062281EA5F18F
:100770000105DCDC07E0D4E9012118F8010B904702
:10078000206A401C2062381EA7F10107F3DC2046D6
:10079000AFF30080032011B043E6000001694A1C5A
:1007A00002610878704700B58FB0CDE901310021B2
:1007B000059105497944CDE9031011466846FFF7D4
:1007C0009FFD0FB000BD0000E5FFFFFF0A6802F8C3
:1007D000010B0A6070470000074B70B50D467B4463
:1007E000FFF7E1FF0446284600F022F910B14FF070
:1007F000FF3070BD204670BDE33200004FF00002B4
:100800000429C0F0128010F0030C00F01781CCF125
:10081000040CBCF1020F18BF00F8012BA8BF20F890
:10082000022BA1EB0C0100F009B95FEAC17C24BFE7
:1008300000F8012B00F8012B48BF00F8012B70478E
:1008400000487047AC3E002030B5B0F10A024FEAD4
:10085000900E71F100034EEA817EB0EB0E0061EB69
:1008600091014FEA101E4EEA017E10EB0E0041EBA3
:1008700011114FEA102E4EEA016E10EB0E0041EB03
:1008800011214FEA104E4EEA014E10EB0E0041EBE3
:100890001141401841F100014FEAD00040EA417097
:1008A0004FEAD10110EB80054FEA810444EA9074CD
:1008B00044EB01046D1944EB0404521BA3414FF0B7
:1008C000000348BF0A3200D530BD401C41F1000191
:1008D00030BD00002DE9F0411F46044603260168A3
:1008E000072A01F4006004DB08B116A505E016A58F
:1008F00003E008B115A500E015A521F01000206067
:10090000A069C01EA0610FB1401EA0612046AFF3D8
:1009100000804FB1D4E9012138469047206A401C3D
:100920002062C01C206206E0206AFAE7D4E90121B7
:1009300015F8010B9047761EF8D22046AFF30080E1
:10094000BDE8F0814E414E006E616E00494E46009A
:10095000696E66002DE9F047814616468AB0334835
:1009600078440DC88DE80D0030487844801C03ACF5
:100970000DC884E80D0041F69B300844372190FBF8
:10098000F1F290FBF1F5A5F1800501FB12041B3C8F
:1009900002D56442012000E00020DFF890A08046EC
:1009A0000027FA44AAF1BE0A0DE0E00709D032465A
:1009B000684607EB47010AEB810100F05AFB8DE81E
:1009C000070064107F1C002CEFD1184F7F44AC3F10
:1009D00018E0E80714D007EB04100DF1180A90E8AE
:1009E0000E008AE80E00C068F04201D19819089004
:1009F000324606A903A800F03CFB03AB83E80700DE
:100A00006D10641C002DE4D132466946B8F1000F28
:100A100003A802D000F019FB01E000F02AFBC9E9AD
:100A20000001C9F808200AB0BDE8F087607F000027
:100A3000007B00F0800070474FF0000200B51346C5
:100A400094469646203922BFA0E80C50A0E80C50EE
:100A5000B1F12001BFF4F7AF090728BFA0E80C509F
:100A600048BF0CC05DF804EB890028BF40F8042B98
:100A700008BF704748BF20F8022B11F0804F18BF05
:100A800000F8012B70470000004870478C3E0020A2
:100A90007546FFF7F9FFAE4605006946534620F05C
:100AA0000700854618B020B5FFF7F6FBBDE82040EB
:100AB0004FF000064FF000074FF000084FF0000B1A
:100AC00021F00701AC46ACE8C009ACE8C009ACE8CD
:100AD000C009ACE8C0098D4670470446AFF30080FA
:100AE0002046FFF779FB00004FF0013C50F8042B43
:100AF00051F8043B9A4221D1A2EB0C03934313EA31
:100B0000CC1317D150F8042B51F8043B9A4215D15D
:100B1000A2EB0C03934313EACC130BD150F8042B34
:100B200051F8043B9A4209D1A2EB0C03934313EA18
:100B3000CC13DBD04FF00000704700BFD01A01BAD1
:100B4000B1FA81F101F0180122FA01F0CB40C1F1B4
:100B50002001DBB2C0B2C01A2CFA01F3D11A9143C2
:100B600011EAC311E6D170475FEA400C08BF91F06B
:100B7000000F4FEA8C234FEAC12243EA51514FEA5A
:100B80001C5018BF00F5F0404FEA300018BF41F08C
:100B900000415FEA6C5C00F02980BCF1FF3F08BFB8
:100BA00040F080407047130C06BF12044FF0100C49
:100BB0004FF0000C130E04BF12020CF1080C130FBF
:100BC00004BF12010CF1040C930F04BF92000CF14E
:100BD000020CD30F04BF52000CF1010C11464FF070
:100BE0000002A0F11F00A0EB0C00704711F0004FB5
:100BF00008BF704731F000413FF4D5AF0B0C06BF82
:100C000009044FF0100C4FF0000C0B0E04BF09024A
:100C10000CF1080C0B0F04BF09010CF1040C8B0F35
:100C200004BF89000CF1020CCB0F04BF49000CF18A
:100C3000010CCCF12003A0EB0C0022FA03F302FA22
:100C40000CF241EA030100F10100704720F07F4CF3
:100C500080EA030023F07F47ACEB070303F57C53E6
:100C600000F0004003F1FF032DE980494FEA154BE6
:100C700009B44FEA144325EA0B4E24EA03480FF265
:100C8000042606EB132749083E785FEA320203FB8D
:100C90000667C7F5000707FB06F64FEA54374FEA29
:100CA000D64606F1020607FB066CCCF1005C4FEA63
:100CB0001C472CEA074C07FB06F40CFB06F504EB7B
:100CC00015464FEA961634BF00204FF000404FEA19
:100CD000D13706FB07FC4FEA1C4C0CFB0BF7D21B71
:100CE00003FB0CF761EB07010CFB0EF7B0EB0740C1
:100CF00072EB17420CFB08F734BFA2EB0742B2EBD2
:100D0000074261EB17414FEA0C444FEA910706FB9B
:100D100007FC4FEA1C4C0CFB0BF7B0EBC74072EB27
:100D2000573203FB0CF734BFA2EBC742B2EBC7420A
:100D300061EB57310CFB0EF7B0EBC70072EB57724B
:100D40000CFB08F734BFA2EBC702B2EBC70261EBA2
:100D50005771039F4FEA816141EA921104EBCC0481
:100D60004FEAD1374FEA826206FB07FC42EA901253
:100D70004FEA80604FEA1C4C0CFB0BF7D21B03FBC5
:100D80000CF761EB07010CFB0EF7B0EB074072EBC1
:100D900017420CFB08F734BFA2EB0742B2EB074245
:100DA00061EB17414FEA8C554FEA910704EB9C2405
:100DB00006FB07FC4FEA1C4C0CFB0BF7B0EBC740E3
:100DC00072EB573203FB0CF734BFA2EBC742B2EB16
:100DD000C74261EB57310CFB0EF7B0EBC70072EB6B
:100DE00057720CFB08F734BFA2EBC702B2EBC70285
:100DF00061EB577115EB4C254FEA816141EA921185
:100E00004FEA82624FEAD13742EA901206FB07FCB2
:100E100044F100044FEA80604FEA1C4C0CFB0BF7D6
:100E2000D21B03FB0CF761EB07010CFB0EF7B0EBD9
:100E3000074072EB17420CFB08F734BFA2EB0742E6
:100E4000B2EB074261EB174115EB1C154FEA8131FC
:100E500041EA92414FEA823242EA90424FEA8030C0
:100E60004FEA0C7644F1000448EA03434EEA0B488B
:100E70004FF0000EB2EB080C71EB030724BF624683
:100E800039464EEB0E0E4FF0000B0018524149410F
:100E90004BEB0B0BB2EB080C71EB03077BF1000B78
:100EA00024BF624639464EEB0E0E4FF0000B001881
:100EB000524149414BEB0B0BB2EB080C71EB0307B2
:100EC0007BF1000B24BF624639464EEB0E0E51EA11
:100ED000020718BF46F0010616EB0E7655F1000228
:100EE00054F1000103D5BDE88901BDE80088BDE8E3
:100EF0008901BDE80048B619524141EB0101A3F157
:100F00000103704780807F7E7D7C7B7A797877765D
:100F100076757473727171706F6E6E6D6C6C6B6AD6
:100F20006A69686867666665646463636261616074
:100F3000605F5F5E5E5D5D5C5C5B5B5A5A595958F1
:100F4000585757565655555554545353525252515B
:100F5000515050504F4F4F4E4E4D4D4D4C4C4C4BB1
:100F60004B4B4A4A4A4949494848484747474746F8
:100F70004646454545444444444343434342424234
:100F800042414141002B26D4770021D01CB54FEAC5
:100F9000370703B44FF010004FF010014FF000007E
:100FA0000FBCBDE810400BF1010BBBF1010F08BFF6
:100FB0005FEA170722BF12F1010211F101014FF0A0
:100FC000004143F1000300F0004043EA0000704795
:100FD000F9D35708DAE746EA064613F1400F4FEA1D
:100FE00016461FDD13F1200FDFBF16430A4600210E
:100FF00020335B42C8D0C3F1200746EA064602FA16
:1010000007F74FEA164646EA0706C3F1200722FA19
:1010100003F201FA07F721FA03F14FF0000342EA65
:101020000702B1E746EA020646EA06464FEA1646D6
:1010300046EA0106BCBF46EA0646360C4FF00003FE
:101040004FF000024FF000019EE72DE9C0489346A3
:1010500030B491E8380007C831EA400C48BF34EAA0
:10106000430C03D5FFF7F2FDFFF78CFFF0BCBDE8A2
:1010700000882DE9C048934630B491E8380007C88D
:1010800010F0804F08BF13F0804F03D100F005F837
:10109000FFF778FFF0BCBDE8008820F07F4780EACA
:1010A000030023F07F4C07EB0C03A3F57C5300F007
:1010B0000040A3F1FE0392F0000F00F0B38095F022
:1010C000000F00F077802DE901494FEA11404FEA07
:1010D000144621EA004800FB06FC24EA064708FB08
:1010E00006F607FB08F800FB07F718EB06484CEB81
:1010F000164C4FEA124B18EB07484FEA15464CEBDB
:10110000174022EA0B4E0BFB06FC25EA06470EFBB6
:1011100006F607FB0EFE0BFB07F71EEB064E4CEB2D
:10112000164C4FF000061EEB074E4CEB174B18EB1E
:101130000B0840F1000018EB0E0B58EB000840F1D3
:1011400000008F1A4FF000013CBFC943661B14BF5B
:10115000B5EB040C00213CBFC943F61B4FEA174412
:101160004EEA8E0E27EA04454FEA1C4704FB07624D
:101170002CEA074C05FB07F70CFB05F604FB0CFCFF
:1011800016EB074642EB174216EB0C4642EB1C42AD
:101190001BEB060658EB0202414146EA9E0601D5CA
:1011A000BDE80189B619524141EB0101A3F10103E8
:1011B000BDE801894FEA14454FEA114724EA054684
:1011C00021EA074C05FB07F406FB07F70CFB06F1C9
:1011D00005FB0CFC11EB074144EB17444FEA1247A7
:1011E00011EB0C4144EB1C4422EA074C05FB07F2CF
:1011F00006FB07F70CFB06F605FB0CFC16EB074697
:1012000042EB174216EB0C4642EB1C456A1854F1B0
:10121000000148BF7047B619524141EB0101A3F1EB
:101220000103704795F0000F37D04FEA11424FEAA3
:10123000144721EA024624EA074C02FB07F106FBA9
:1012400007F70CFB06F402FB0CFC14EB074441EB24
:1012500017414FEA154714EB0C4441EB1C4125EABA
:10126000074C02FB07F506FB07F70CFB06F602FB33
:101270000CFC16EB074645EB174516EB0C4645EB09
:101280001C42121951F1000148BF7047B619524172
:1012900041EB0101A3F1010370474FEA14454FEA06
:1012A000114724EA054621EA074C05FB07F106FB36
:1012B00007F70CFB06F24FF0000605FB0CFC12EBE7
:1012C000074241EB174112EB0C4251EB1C4148BF66
:1012D0007047921841EB0101A3F10103704710B56B
:1012E000012000F0ABFE002000F0A8FE10BD0000C1
:1012F00008B501460020009003480090009808447B
:1013000000900098008808BD006C004008B50022DD
:101310000092044A0092009A02440092009A1160DE
:1013200008BD0000006C004000BFFEE770470000F1
:101330002DE9F041124D134E13480078D8B11348EF
:101340000068D8B11148006803F070FF8046294654
:1013500003F080FF04462146304603F085FE074631
:1013600039460B48006803F01DFE0949086008462D
:101370000068BDE8F08106480068FAE700BFF8E7BA
:1013800000904F440050C3476A0000207C000020BA
:10139000300000202DE9F041024600250026002003
:1013A00000230024002791F803C00CF00F0591F8EA
:1013B00003C00CF0100CBCF1000F03D091F802C078
:1013C0004CEA050591F800C0BCF1000F31D014685B
:1013D00000202BE04FF0010C0CFA00F3B1F800C034
:1013E0000CEA03069E4220D183004FF00F0C0CFA4A
:1013F00003F7BC4305FA03FC4CEA040491F803C06C
:10140000BCF1280F06D14FF0010C0CFA00FCC2F819
:1014100014C00AE091F803C0BCF1480F05D14FF0A9
:10142000010C0CFA00FCC2F810C0401C0828D1D3F3
:101430001460B1F800C0BCF1FF0F34DD5468002027
:101440002EE000F1080C4FF0010808FA0CF3B1F897
:1014500000C00CEA03069E4221D183004FF00F0C1E
:101460000CFA03F7BC4305FA03FC4CEA040491F8B8
:1014700003C0BCF1280F05D100F1080C08FA0CF8E4
:10148000C2F8148091F803C0BCF1480F07D100F1F5
:10149000080C4FF0010808FA0CF8C2F81080401C44
:1014A0000828CED35460BDE8F0810246002093683E
:1014B0000B400BB1012000E00020704741617047F4
:1014C000016170472DE9F05F0646884693469A46CB
:1014D000DDF82890E2E099F80000802835DA99F8E4
:1014E0000070202F03DDA7F1200087B200E0002765
:1014F000002522E000241CE005EB07106B49095C85
:1015000080202041014041B108EB050291B232191F
:1015100090B25A4600F00EF909E0D34507D008EB27
:10152000050291B2321990B2524600F003F9601CE4
:10153000C4B2082CE0DB681CC5B2102DDADB09F15F
:10154000010906F1080086B2A8E000279EE007EB3B
:10155000870000EB4710564911F8100099F8001069
:1015600088427CD107EB870000EB4710504901EB24
:101570004000407899F801108842F2D1002580E0BF
:10158000002423E007EB870000EB4710484901EBFC
:101590004000801C05EB4501405C80212141084052
:1015A00040B108EB050291B2321990B25A4600F0F0
:1015B000C1F809E0D34507D008EB050291B2321912
:1015C00090B2524600F0B6F8601CC4B2082CD9DBC9
:1015D000002426E007EB870000EB4710344901EBBD
:1015E0004000801C05EB4501491C405C80212141E5
:1015F000084048B108EB050291B23219083290B2A6
:101600005A4600F097F80AE0D34508D008EB0502E7
:1016100091B23219083290B2524600F08BF8601C39
:10162000C4B2082CD6DB002427E007EB870000EBD0
:1016300047101F4901EB4000801C05EB4501891C48
:10164000405C80212141084050B108EB050291B275
:101650003219103290B25A4600F06CF80BE013E0E9
:10166000D34508D008EB050291B23219103290B27E
:10167000524600F05FF8601CC4B2082CD5DB681C31
:10168000C5B2182DFFF67CAF781C87B2322FFFF65B
:101690005EAF09F1020906F1180086B299F8000060
:1016A00000287FF418AFBDE8F09F0000DA5400086E
:1016B000346900082DE9F05F07468846924699464E
:1016C000002531E000242BE019490A9801EBC010F5
:1016D00000EB850010F804B000261DE080203041AA
:1016E00000EA0B0050B108EB050291B207EBC4020F
:1016F000324490B2524600F01DF80BE0CA4509D0C2
:1017000008EB050291B207EBC402324490B24A469C
:1017100000F010F8701CC6B2082EDFDB601CC4B2EB
:10172000042CD1DB681CC5B2202DCBDBBDE8F09FBB
:10173000CB5A000870B505460E4614463146284679
:1017400000F0C9FB204600F0EDFB70BD00BFFEE7D6
:101750000146CA1701EB92729210A1EB820292B974
:10176000642091FBF0F200FB121050B94FF4C870E6
:1017700091FBF0F200FB121008B901207047002025
:10178000FCE70120FAE70020F8E7000008B5012196
:10179000042000F043FC0121084600F03FFCF0204B
:1017A000ADF8000028208DF8030069460148FFF7D6
:1017B000F1FD08BD0008014004E0C82003F0A0F8D6
:1017C00002F08EF9F9E710B50246012000E050431F
:1017D0000B00A1F10104E1B2F9D110BD2DE9F84FE0
:1017E00080460E4617461C46B3462046E31704EBD8
:1017F0005373DB1021464FEAE47C04EB5C7C4FEA38
:10180000EC0CA4EBCC0CBCF1000F02D04FF0010C9F
:1018100001E04FF0000C6344224604EBD27C4FEA17
:101820006C0C03FB0CF3DBB20093A7F12000C7B2F2
:10183000002552E00C2C07D107EB4700294901EBAA
:10184000800010F8059013E0102C05D1264800EB1D
:10185000071010F805900BE0182C07D107EBC70014
:10186000224901EB800010F8059001E0BDE8F88FF7
:101870004FF0000A2BE009F0800030B14FF4FC6219
:1018800031464046FFF756FF06E00A9820B900228D
:1018900031464046FFF74EFF4FEA49604FEA106974
:1018A000701C86B2B02E00DBE0E7A6EB0B00A04276
:1018B00009D15E4608F101001FFA80F8B8F1DC0F8B
:1018C00000DBD3E706E00AF1010000F0FF0ABAF1FD
:1018D000080FD0DB00BF681CC5B200988542A9DBA9
:1018E00000BFC3E76E700008E2740008D27A0008F7
:1018F0002DE9FC5F80460E46174699460C9C0196E2
:101900002046E31704EB5373DB1021464FEAE47CD7
:1019100004EB5C7C4FEAEC0CA4EBCC0CBCF1000FAC
:1019200002D04FF0010C01E04FF0000C634422465E
:1019300004EBD27C4FEA6C0C03FB0CF3DBB200939C
:10194000A7F12000C7B2002551E00C2C07D107EB0E
:101950004700294901EB800010F805A013E0102C86
:1019600005D1264800EB071010F805A00BE0182C55
:1019700007D107EBC700224901EB800010F805A052
:1019800001E0BDE8FC9F4FF0000B2AE00AF0800068
:1019900028B14A4631464046FFF7CCFE06E00D9896
:1019A00020B9002231464046FFF7C4FE4FEA4A60A4
:1019B0004FEA106A701C86B2B02E00DBE1E7019896
:1019C000301AA04209D1019E08F101001FFA80F8E7
:1019D000B8F1DC0F00DBD4E706E00BF1010000F00A
:1019E000FF0BBBF1080FD1DB00BF681CC5B200982C
:1019F0008542AADB00BFC4E76E700008E2740008ED
:101A0000D27A00082DE9FF4F83B0064692461F4662
:101A1000DDE910480020029000254DE0781B401EB3
:101A2000C1B20A20FFF7CFFEBAFBF0F00A21B0FBEB
:101A3000F1F201FB1209029850BB781EA84227DD83
:101A4000B9F1000F22D108F0800078B108F0010050
:101A5000A34604EBDB71491001FB0561009088B2DD
:101A6000234630220499FFF7B9FE0EE008F001008A
:101A7000A34604EBDB71491001FB0561009088B2BD
:101A8000234620220499FFF7A9FE13E001200290CB
:101A900008F00100A34604EBDB71491001FB05616E
:101AA000009088B209F13001CAB223460499FFF7C9
:101AB00095FE00BF681CC5B2BD42AFDB07B0BDE8F4
:101AC000F08F2DE9FF4F83B0064692461F46DDE9B1
:101AD000114800200290002550E0781B401EC1B242
:101AE0000A20FFF770FEBAFBF0F00A21B0FBF1F21A
:101AF00001FB1209029860BB781EA84229DDB9F1EA
:101B0000000F24D108F0800080B108F00100A34646
:101B100004EBDB71491001FB0561CDE9004088B29F
:101B20003022109B0499FFF7E3FE0FE008F001005C
:101B3000A34604EBDB71491001FB0561CDE90040D0
:101B400088B22022109B0499FFF7D2FE14E00120F6
:101B5000029008F00100A34604EBDB71491001FB81
:101B60000561CDE9004088B209F13001CAB2109B8D
:101B70000499FFF7BDFE00BF681CC5B2BD42ACDBD7
:101B800007B0BDE8F08F30B505460C46284600F09A
:101B9000D3F9204600F0C6F930BD000008B5012198
:101BA000082000F03BFA4FF40060ADF80000102070
:101BB0008DF8030003208DF8020069460448FFF702
:101BC000E9FB4FF400610248FFF77AFC08BD000012
:101BD000000C014000241EE000200F4908604FF473
:101BE000FA7002F08DFE01200C49C1F8AC014FF4EF
:101BF000FA7002F085FE322C00D10024FFF798FB2A
:101C0000074603F0A3F905462A460B4604A0FEF753
:101C100057FB601CC4B2DFE7AC8121420080214247
:101C200050574D3A2565204C0D0A000030B504464A
:101C3000AF23DB220021084600F02CF94FF40060AE
:101C40000C4908604010091F0860002508E02112B7
:101C5000094800F073FDE1B2074800F06FFD6D1C0C
:101C600049F240708542F2D34FF400600149091FE8
:101C7000086030BD140C01400038004010B500F081
:101C8000D5FC00F0F3F8022000F056F94FF4807014
:101C900000F048F91C210120FFF775FF41F23801DF
:101CA0000320FFF770FF082000F046F940F6080017
:101CB00000F038F90B2000F03FF94FF4885000F0A5
:101CC00031F90C2000F038F9002000F02BF90F203A
:101CD00000F032F941F2014000F024F9152000F043
:101CE0002BF9002000F01EF9202000F025F900203B
:101CF00000F018F9212000F01FF9002000F012F97F
:101D0000322001F097FE102000F016F94FF4006029
:101D100000F008F9112000F00FF941F63F7000F0D3
:101D200001F9322001F086FE122000F005F940F2A0
:101D3000211000F0F7F8132000F0FEF86F2000F0FB
:101D4000F1F8142000F0F8F844F2493000F0EAF815
:101D5000302000F0F1F8002000F0E4F8312000F02D
:101D6000EBF8DB2000F0DEF8322000F0E5F8002090
:101D700000F0D8F8332000F0DFF8002000F0D2F8AF
:101D8000342000F0D9F8DB2000F0CCF8352000F04A
:101D9000D3F8002000F0C6F8362000F0CDF8AF20D0
:101DA00000F0C0F8372000F0C7F8002000F0BAF8C3
:101DB000382000F0C1F8DB2000F0B4F8392000F042
:101DC000BBF8002000F0AEF8502000F0B5F801207C
:101DD00000F0A8F8512000F0AFF842F20B0000F03C
:101DE000A1F8522000F0A8F8002000F09BF8532042
:101DF00000F0A2F840F2044000F094F8542000F003
:101E00009BF840F60C4000F08DF8552000F094F857
:101E10000C2000F087F8562000F08EF840F20110F8
:101E200000F080F8572000F087F84FF4806000F051
:101E300079F8582000F080F841F2081000F072F8AC
:101E4000592000F079F840F20C5000F06BF8322085
:101E500001F0F0FD072000F06FF841F2170000F0EC
:101E600061F8222000F068F810BD000010B54FF4B2
:101E7000805007490860642001F0DCFD4FF4805079
:101E80000349091F0860322001F0D4FD10BD000095
:101E9000140C0140F0B504460F4615461E4629466F
:101EA0003820FFF770FE21463920FFF76CFE3146DF
:101EB0003620FFF768FE39463720FFF764FE2146DB
:101EC0002120FFF760FE39462020FFF75CFE22202C
:101ED00000F032F8F0BD30B504460D462146212011
:101EE000FFF751FE29462020FFF74DFE222000F08B
:101EF00023F830BD00B503464FF400600749086081
:101F00004010091F08601946054800F017FC4FF4FF
:101F100000600249091F086000BD0000140C014068
:101F20000038004010B504462012FFF7E3FFE0B28E
:101F3000FFF7E0FF10BD000000B503464FF400605E
:101F400006490860401008601946054800F0F6FB95
:101F50004FF400600149091F086000BD140C0140E6
:101F60000038004000BFFEE77047000070B5002158
:101F700000230F22C47804B3154C246804F4E064F1
:101F8000C4F5E064210AC1F10403CA40447804FAAC
:101F900003F184781440214309010E4C0678A155C1
:101FA000047804F01F050124AC4005786D11AD00E4
:101FB00005F1E025C5F8004109E0047804F01F05AB
:101FC0000124AC40044D0678761145F8264070BDDA
:101FD0000CED00E000E400E080E100E00249014394
:101FE000024A1160704700000000FA050CED00E0A5
:101FF000014908627047000000000E4229B1064AFC
:10200000D2690243044BDA6104E0034AD269824395
:10201000014BDA61704700000010024029B1064A06
:1020200092690243044B9A6104E0034A9269824335
:10203000014B9A617047000000100240014908609E
:10204000704700004004424230B5002100220024C5
:1020500000232D4D6D6805F00C0121B1042905D038
:10206000082923D105E0294D056022E0274D0560B0
:102070001FE0254D6D6805F47012234D6D6805F461
:102080008034022505EB92421CB9214D5543056071
:102090000BE01D4D6D6805F400351DB11C4D554319
:1020A000056002E0194D5543056002E0174D0560DB
:1020B00000BF00BF144D6D6805F0F0010909154D12
:1020C0006B5C0568DD4045600F4D6D6805F4E061AF
:1020D000090A104D6B5C4568DD4085600A4D6D68EE
:1020E00005F46051C90A0B4D6B5C4568DD40C56065
:1020F000054D6D6805F44041890B074D6B5CC56863
:10210000B5FBF3F5056130BD0010024000127A0006
:1021100000093D00000000201000002010B501461D
:102120000022002300204A11012A02D1094C236811
:1021300006E0022A02D1074C236A01E0054C636ADB
:1021400001F01F02012494401C400CB1012000E06A
:10215000002010BD0010024000210B4A11700A4AF5
:10216000203A82F82010012802D0042808D103E088
:102170000121054A117004E00521034A117000E0B5
:1021800000BF00BF704700002010024001490860F6
:10219000704700003C0442420249096A0143014A77
:1021A0001162704700100240024909888143014AC8
:1021B00011807047042800400348008840F0100058
:1021C0000149088070470000042800400348008847
:1021D0004FF6EF710840014908807047042800401D
:1021E00070B500260024002500F07AF8064638482D
:1021F000B6FBF0F437480088A0423CD035490C804B
:1022000040F2B27510E02846FFF7A2FA40B1B4F5EB
:10221000B77F02D3A4F5B77404E0681C85B206E06A
:10222000A4F26D14681C85B2B4F5B67FEBD800BF7C
:1022300029488580002516E027498888FFF788FA15
:1022400030B1012D04D11D2C01D31D3C09E00CE05F
:102250002248405DA04203D82048405D241A00E097
:1022600003E0681C85B21C2CE6D200BF681C1A492A
:102270008871601CC8711648B6FBF0F100FB116450
:102280004FF46160B4FBF0F0134908704FF46160E3
:10229000B4FBF0F100FB11403C21B0FBF1F00E4922
:1022A00048704FF46160B4FBF0F100FB11403C2139
:1022B000B0FBF1F201FB1200074988700B46DA7996
:1022C0009979988800F028F803490872002070BDB9
:1022D000805101006C000020880100203A8800082D
:1022E000002103480188001F008841EA0040704730
:1022F0001C28004001460020064A12880A40D0B23D
:10230000044A121F12880A4012B108B1012000E0ED
:102310000020704704280040F0B503460C461546DF
:10232000642093FBF0F0C6B2642093FBF0F700FB4F
:102330001730C1B2132E02DD01F16400C1B20846AC
:10234000CF1701EB977701EBA707BAB2072092FBF3
:10235000F0F700FB172082B25719601EDFF82CC07F
:102360001CF80000384482B2CF1701EB9777BF10FA
:10237000A1EB87071FB9032C01DA501E82B2072098
:1023800092FBF0F700FB1720C0B2F0BD2E880008CA
:1023900010B50120FFF7AEFF08B1FFF721FF0220C3
:1023A000FFF7A8FF20B10220FFF7FEFEFFF718FF9E
:1023B0000520FFF7F9FE00F003F910BD29B1064A28
:1023C00012880243044B1A8004E0034A12888243B5
:1023D000014B1A8070470000002800401CB5002403
:1023E00001214FF0C050FFF709FE0120FFF700FE6A
:1023F0000420FEF77DFF45F25001884240D0FEF7F1
:102400006EFF0120FFF7A8FE04E0601CC4B20A20A2
:1024100001F010FB4120FFF781FE08B9FA2CF4DB34
:10242000FA2C01DB01201CBD4FF48070FFF7B4FED5
:102430000120FFF7ABFE00F0C3F800F0CBF801215C
:102440000846FFF7BBFF00F0BBF8FFF7B5FE47F605
:10245000FF7000F0A5F800F0B3F837201E21132319
:102460001522CDE90010092140F2E17000F026F8B4
:10247000FFF7ACFE45F250010420FEF747FF07E0EE
:1024800000F0A8F801210846FFF798FF00F098F83F
:1024900000F004F8FFF7A4FE0020C4E708B503200D
:1024A0008DF8000000208DF801008DF80200012059
:1024B0008DF803006846FFF759FD08BD2DE9F05F70
:1024C00006460F4690469946DDE90AAB002440F2E5
:1024D000B270864203DB40F63300864202DD012003
:1024E000BDE8F09F40F2B2750AE02846FFF730F9E8
:1024F00010B12048044401E01F480444681C85B220
:10250000B542F2DB781EC7B2002510E01B48405DE3
:1025100040F2A321484304EBC0143046FFF718F9FA
:1025200018B1012D01D116480444681C85B2BD4282
:10253000ECDBA8F1010040F2A321484304EBC014F6
:10254000C9EB4910C0EB092004EB0014CAEB0A10D8
:1025500004EB80045C4401214FF0C050FFF74EFDB6
:102560000120FFF745FD204600F00CF800F028F8A8
:102570000020B5E70085E2018033E1013A880008D8
:102580008051010000B50246FFF716FE100C03490A
:102590000880091D0A80FFF719FE00BD18280040B9
:1025A00000B50246FFF708FEC2F303400349088066
:1025B000091D0A80FFF70AFE00BD00000828004040
:1025C00000BF0348008800F020000028F9D07047C1
:1025D00004280040074800884FF6F7710840054975
:1025E000088000BF0348008800F008000028F9D0E8
:1025F000704700000428004008B501211020FFF7B3
:102600000DFD1020ADF8000014208DF8030003200C
:102610008DF8020069460448FEF7BCFE102102480E
:10262000FEF74EFF08BD00000010014000B587B066
:1026300001210920FFF7F2FC4FF42040ADF804001F
:1026400003208DF8060018208DF8070001A9244802
:10265000FEF7A0FE4FF48040ADF8040048208DF84E
:10266000070003208DF8060001A91D48FEF792FE21
:102670004FF4F050ADF8040003208DF80600102050
:102680008DF8070001A91648FEF784FE0121880392
:10269000FFF7B4FC0020ADF808004FF48270ADF8ED
:1026A0000A000020ADF80C000220ADF80E00012059
:1026B000ADF810004002ADF812000020ADF8140093
:1026C000ADF816000720ADF8180002A9054800F083
:1026D00017F80121034800F007F807B000BD00001B
:1026E000000C01400038004021B1028842F0400255
:1026F000028004E002884FF6BF731A4002807047E0
:1027000010B50022028802F441520B884C88234302
:102710008C882343CC8823430C8923434C8923434F
:102720008C892343CC8923431A430280838B4FF245
:10273000FF74234083830B8A038210BD024600BFCF
:10274000108900F002000028FAD0918100BF1089A2
:1027500000F001000028FAD09089C0B2704710B58F
:1027600000F002F810BD00000CB5002001900090B0
:102770003348006840F480303149086000BF304879
:10278000006800F4003000900198401C019000980F
:1027900018B90198B0F5A06FF1D12948006800F48C
:1027A000003010B10120009001E00020009000985E
:1027B000012843D12348006840F0100021490860F7
:1027C0000846006820F0030008600846006840F0F2
:1027D000020008601A484068194948600846406885
:1027E00048600846406840F4806048600846406899
:1027F00020F47C1048600846406840F4E8104860C7
:102800000846006840F08070086000BF0C4800680F
:1028100000F000700028F9D00948406820F003005B
:10282000074948600846406840F00200486000BF21
:102830000348406800F00C000828F9D10CBD0000E6
:10284000001002400020024030B59DB037A110A812
:10285000FDF742FD14240A2510A800234FF4FC6262
:10286000294600902046FEF72DFE303400BF0020A0
:1028700018233A220A2100902046FEF7AFFF1834B1
:1028800000BF80201821CDE900102A488288022349
:1028900029462046FFF7B6F82748048005F11800BE
:1028A0002549488004F11800087105F118004871A5
:1028B00004F11800C4B200BF002018232E222946BC
:1028C00000902046FEF78AFF04F10C00C4B200BF5E
:1028D00080201821CDE900101648C288032329461C
:1028E0002046FFF78FF81448848105F1180012493B
:1028F000C88104F12400087405F1180048740FA180
:1029000003A8FDF7E9FC04F12400C4B204F10A00B5
:10291000C4B20A3503A800234FF4FC622946009094
:102920002046FEF7CFFD1DB030BD0000B6A8C1BFE8
:10293000000000004A000020400100206D3300002C
:1029400047E02448408824494988884226DA2348B9
:10295000006802F04BFC80B24FF47A7190FBF1F00A
:102960001C4988801D48006802F040FC80B24FF48A
:102970007A7190FBF1F201FB12001649C8800846FB
:10298000C088898801EB4102C2EBC11100EBC10094
:102990001049488000201249086002E001201049D7
:1029A00008601048006810490968884206D1002074
:1029B0000A49086007494880094908600B480078BF
:1029C00008B100F01DF901F027FE40F2523001F08D
:1029D00097FFB6E75A0000204A0000203000002090
:1029E0009001224228010020100100206A000020EE
:1029F00037B582B00A247825BDF80C00182808DC09
:102A0000BDF80C304FF4FC622946204601F094FDDD
:102A100003E000203B490870487004F10A003A497D
:102A2000088005F12300488004F13000087105F1A9
:102A30002300487104F13000C4B204F10C00C4B2A8
:102A4000012018233A22294600902046FEF7C6FEB0
:102A500004F11000C4B2BDF80E003C2808DCBDF83B
:102A60000E304FF4FC622946204601F065FD07E078
:102A70000020244908700120487024A0FDF720FCA4
:102A800004F10A002049C88005F12300088104F1FF
:102A90003000887205F12300C87204F13000C4B21E
:102AA000012018233A22294600902046FEF796FE80
:102AB00004F11000C4B2BDF810003C2808DCBDF8D9
:102AC00010304FF4FC622946204601F035FD07E046
:102AD00000200C4908700220487012A0FDF7F0FB9E
:102AE00004F10A000849888105F12300C88104F136
:102AF0003000087405F12300487404F13000C4B2BA
:102B000005B030BD480000206401002074696D6587
:102B100020736574206D696E757465206572726FBF
:102B2000720D0A0074696D652073657420736563A6
:102B30006F6E64206572726F720D0A0030B58FB0CF
:102B40002BA102A8FDF7C8FB1424502502A80023DE
:102B50004FF4FC62294600902046FEF7B3FC303467
:102B6000002018233A22294600902046FEF736FE20
:102B7000183480201821CDE900101F4882880223D4
:102B800029462046FEF73EFF1C48048005F1180048
:102B90001A49488004F11800087105F118004871BD
:102BA00004F11800C4B2002018233A2229460090EC
:102BB0002046FEF713FE04F10C00C4B28020182159
:102BC000CDE900100C48C288022329462046FEF7B2
:102BD00019FF0A48848105F118000849C88104F1E9
:102BE0002400087405F1180048740FB030BD0000CF
:102BF000B6A8CAB100000000100100207601002034
:102C000030B59DB035A110A8FDF766FB1424322520
:102C100010A800234FF4FC62294600902046FEF7DE
:102C200051FC3034002018233A22294600902046D7
:102C3000FEF7D4FD183480201821CDE90010294872
:102C40008288022329462046FEF7DCFE26480480BF
:102C500005F118002449488004F11800087105F1B5
:102C60001800487104F11800C4B2002018232E2265
:102C7000294600902046FEF7B1FD04F10C00C4B2D5
:102C800080201821CDE900101648C2880323294668
:102C90002046FEF7B7FE1448848105F1180012495A
:102CA000C88104F12400087405F1180048740FA1CC
:102CB00003A8FDF711FB04F12400C4B204F10A00DB
:102CC000C4B20A3503A800234FF4FC6229460090E1
:102CD0002046FEF7F7FB1DB030BD0000D2D1D3C3B4
:102CE000000000005A000020520100206D33000057
:102CF000042808D14FF0E021096941F004014FF0A8
:102D0000E022116107E04FF0E021096921F00401A0
:102D10004FF0E0221161704710B501F0C5FF0128A6
:102D200001D001F077FF10BD10B51348006840F0E6
:102D300001001149086008464068104908400E49E2
:102D40004860084600680E4908400B49086008467C
:102D5000006820F4802008600846406820F4FE00E7
:102D600048604FF41F008860FFF7F9FC4FF00060E7
:102D70000449086010BD0000001002400000FFF888
:102D8000FFFFF6FE08ED00E0F0B50C461546002208
:102D90000021068C4FF6FE773E400684028B018CA4
:102DA0004FF60C7632407E1C06EA03162E43324361
:102DB000104EB0420ED0104EB0420BD0B0F1804F4A
:102DC00008D00E4EB04205D00D4EB04202D00D4E8E
:102DD000B04206D14FF6FD76314044F00106314352
:102DE00005E04FF6F576314044F0010631430283A9
:102DF0000184F0BD002C014000340140000400407B
:102E000000080040000C0040F0B50C4615460022BA
:102E100000210026078C4FF6EF7C07EA0C07078499
:102E2000028B018C4FF6FF7707EA041640F6FF4746
:102E30003A404FF6FF7707EA03373A434FF6FF77FA
:102E400007EA05273A43114FB8420ED0104FB84257
:102E50000BD0B0F1804F08D00E4FB84205D00E4FC6
:102E6000B84202D00D4FB84206D14FF6DF77394055
:102E700046F01007394305E04FF65F77394044F0DC
:102E80001007394302830184F0BD0000002C01408B
:102E9000003401400004004000080040000C0040E5
:102EA000F0B50C461546002200210026078C4FF68F
:102EB000FF6C07EA0C070784828B018C4FF6FF77C3
:102EC00007EA04264FF60C773A404FF6FF7707EAF9
:102ED00003172F433A43114FB8420ED0104FB84258
:102EE0000BD0B0F1804F08D00E4FB84205D00E4F36
:102EF000B84202D00D4FB84206D14FF6FF573940C5
:102F000046F48077394305E04FF2FF57394044F4E7
:102F10008077394382830184F0BD0000002C01409A
:102F2000003401400004004000080040000C004054
:102F3000F0B50C461546002200210026078C4EF6FF
:102F4000FF7C07EA0C070784828B018C4FF6FF7722
:102F500007EA043640F6FF473A404FF6FF7707EAA4
:102F600005273A434FF6FF7707EA03373A43114FF5
:102F7000B8420ED0104FB8420BD0B0F1804F08D0FD
:102F80000E4FB84205D00E4FB84202D00D4FB84296
:102F900006D14DF6FF77394046F48057394305E0B6
:102FA00047F6FF57394044F4805739438283018400
:102FB000F0BD0000002C014000340140000400403E
:102FC00000080040000C004010B50121054800F049
:102FD00012F930B10121034800F0FEF802A0FDF71C
:102FE0006FF910BD0004004074696D657220776F41
:102FF000726B696E6720210D0A00000030B589B040
:1030000005460C4601210220FEF7F8FF01210920A8
:10301000FFF704F80120ADF8200018208DF82300F8
:1030200003208DF8220008A91648FEF7B3F9ADF881
:103030001850ADF814400020ADF81A00ADF8160095
:1030400005A9114800F0CEF97020ADF80400012068
:10305000ADF806006420ADF80A000020ADF80C00C1
:1030600001A9094800F038F90821074800F084F95F
:103070000121054800F0A4F80121034800F0AFF851
:1030800009B030BD000C01400004004030B585B0EF
:1030900005460C4601210820FEF7B0FF012104205F
:1030A000FEF7BCFF0120ADF8100028208DF81300BA
:1030B00004A91D48FEF76EF901211B48FEF7FEF931
:1030C000ADF80850ADF804400020ADF80A00ADF8A6
:1030D000060001A9154800F085F900201449088070
:1030E0004880012088800020C88008810F4800F0B7
:1030F00093F832208DF8000006208DF801000020A2
:103100008DF8020001208DF803006846FEF72EFFBF
:1031100001220321054800F0D5F80121034800F001
:103120005EF805B030BD000000080140000C004012
:10313000920100201D490888A0B31D49097899B95A
:1031400000F0010139B119492431098801F58031B4
:10315000184A116004E0154924310988154A1160A4
:103160000121134A11701DE000F0010139B10F492E
:103170002431098801F580310F4A116004E00B49C0
:10318000243109880C4A11600021094A11700A494A
:103190000968084A1268891A084A11600021034A1E
:1031A000143211800021014A11807047100C004038
:1031B0008000002074000020780000207C000020A7
:1031C00021B1028842F08002028004E002884FF6BA
:1031D0007F731A4002807047CA430282704721B150
:1031E000028842F00102028004E002884FF6FE737A
:1031F0001A400280704730B50246002000230024A8
:10320000158A05EA0103958905EA010413B10CB199
:10321000012000E0002030BD70B505460C46244872
:1032200085420ED0234885420BD0B5F1804F08D09F
:103230002148854205D02148854202D02048854258
:1032400000D100E000BF208850B92389A28861889E
:103250002846FFF799FDE188284600F096F825E01A
:10326000208804280AD12389A28861882846FFF78C
:10327000CBFDE188284600F091F817E02088082867
:103280000AD12389A28861882846FFF709FEE188D0
:10329000284600F090F809E02389A2886188284632
:1032A000FFF746FEE188284600F08EF870BD00006A
:1032B000002C0140003401400004004000080040A0
:1032C000000C00401AB183890B43838102E083899B
:1032D0008B4383817047000070B5002400220023D7
:1032E000058C4FF6FF6635400584028C8388848BFD
:1032F0004FF68F752C404FF6FC752C400D882C43F3
:103300004FF6FF552A400D894FF6FF7606EA052550
:103310002A434D8806EA05252A43154DA84202D0C6
:10332000144DA8421DD14FF2FF752A404D894FF62A
:10333000FF7606EA05252A434FF6FF352A408D8899
:1033400006EA05252A434EF6FF752B404DF6FF751C
:103350002B408D8906EA05152B43CD8906EA051514
:103360002B4383808483CD888587028470BD0000D1
:10337000002C0140003401400A460021818B4FF6A9
:10338000F7731940114381837047028B4FF6F37333
:103390001A400283028B0A4302837047028B4FF26A
:1033A000FF331A400283028B4FF6FF7303EA0123B7
:1033B0001A4302837047828B4FF6F3731A4082835D
:1033C000828B0A4382837047828B4FF2FF331A400D
:1033D0008283828B4FF6FF7303EA01231A438283B1
:1033E00070470000002202881D4B98420ED01D4BF2
:1033F00098420BD0B0F1804F08D01B4B984205D0BB
:103400001A4B984202D01A4B984204D14FF68F7350
:103410001A404B881A43174B984207D0164B9842D4
:1034200004D04FF6FF431A40CB881A4302808B88A2
:1034300083850B8803850A4B98420BD0094B984231
:1034400008D00E4B984205D00D4B984202D00D4B40
:10345000984201D10B7A03860123838270470000D2
:10346000002C0140003401400004004000080040EE
:10347000000C0040001000400014004000400140DB
:10348000004401400048014010B540F22551044875
:1034900000F014F818B1024800F0CCF8C4B210BD26
:1034A0000038014021B1828942F40052828104E057
:1034B00082894DF6FF731A408281704770B50246CB
:1034C000002400230025002040F66A16B14200D1F6
:1034D00000BFC1F3421501F01F03012606FA03F3F2
:1034E000012D02D19689334006E0022D02D1168AC1
:1034F000334001E0968A33400C12012606FA04F4A8
:103500001688344013B10CB1012000E0002070BDDA
:10351000F0B50346002400260025002040F66A1777
:10352000B94200D100BF1846C1F3421401F01F0692
:10353000012707FA06F5012C01D10C3004E0022C1A
:1035400001D1103000E014301AB107682F43076032
:1035500002E00768AF430760F0BD00002DE9F047C7
:1035600086B005460E460024A24600BFA1460027AD
:10357000B08900B100BF2F462C8A4CF6FF70044082
:10358000F08804432C82AC894EF6F3100440B088D6
:1035900031890843718908430443AC81AC8A4FF6F2
:1035A000FF400440B0890443AC8201A8FEF74CFD03
:1035B0001F48874202D1DDF810A001E0DDF80CA021
:1035C000A88900F4004040B10AEBCA0000EB0A10E1
:1035D00031684900B0FBF1F807E00AEBCA0000EBE4
:1035E0000A1031688900B0FBF1F86420B8FBF0F0F4
:1035F00004012009642101FB1089A88900F400401E
:1036000040B1322000EBC900B0FBF1F000F0070040
:10361000044308E0322000EB09106421B0FBF1F014
:1036200000F00F0004432C8106B0BDE8F0870000D5
:103630000038014001468888C0F30800704700BF89
:10364000FEE7490050EAC12018BF04204A0D18BF08
:1036500040F0010040F2FF72B2EB515F08BF40F052
:103660000200012808BF05207047000010B501F0D6
:10367000A5F84FF44070FEF7B1FCFEF787F8FEF7AF
:10368000BBFF00F0A9F9FEF789FA4FF4E13000F032
:10369000F9FFFEF7F3FAFEF7A1FE4FF4967000F083
:1036A000C9F917A0FCF70CFE472140F2E730FFF7FD
:1036B000A5FC4FF47A7000F0BDF940F2CF214FF62F
:1036C000FF70FFF7E3FC14A0FCF7FAFD0020FEF703
:1036D000ADFA174800781749888015484078C880A7
:1036E000134880780881FFF7AFF8FFF789FAFFF7F2
:1036F00025FA104807C8FFF77BF901F089F810BDDB
:1037000041542B434F4E41333431353133434437E9
:103710003641390D0A000000776174657220666CCD
:103720006F7720776F726B696E6720210D0A00003A
:103730008801002028010020014600BF70470000DA
:103740001CB580201821324BCDE900109A88314BEE
:103750005B88183B99B22F4B18880223FEF752F969
:10376000802018212A4BCDE90010DA88294BDB890B
:10377000183B99B2274B98890323FEF743F9802021
:103780001821254BCDE900109A88244B5B88183B03
:1037900099B2224B18880223FEF734F980201821B1
:1037A0001D4BCDE90010DA881C4BDB89183B99B220
:1037B0001A4B98890223FEF725F9194A9388194A6A
:1037C0005288233A91B2174A12880A3A90B24FF4BB
:1037D000FC6200F0B1FE144AD388124A1289233ADF
:1037E00091B2104AD2880A3A90B24FF4FC6200F0CB
:1037F000A3FE0B4A13890B4AD289233A91B2094A94
:1038000092890A3A90B24FF4FC6200F095FE1CBD1A
:103810004A00002040010020100100207601002015
:103820002801002064010020340100200EB560480A
:103830000078002879D05F480078002875D1FFF71C
:103840007FFF5D48B0F9240008286FD2DFE800F060
:10385000A904172A3D506F8C802018214FF478421C
:10386000564BCDE9002102909A88554B5B88183B56
:1038700099B2534B18880223FEF723F992E0802077
:1038800018214FF478424D4BCDE900210290DA889F
:103890004B4BDB89183B99B2494B98890323FEF7C0
:1038A00010F97FE0802018214FF47842454BCDE994
:1038B000002102909A88444B5B88183B99B2424B96
:1038C00018880223FEF7FDF86CE0802018214FF4E1
:1038D00078423C4BCDE900210290DA883A4BDB89F3
:1038E000183B99B2384B98890223FEF7EAF859E061
:1038F000364A9388364A5288233A91B2344A12881B
:103900000A3A90B24FF4784200F016FE31488078BF
:1039100030494978CDE900102C4803791722092154
:1039200040F2E170FEF7CAFD3CE03FE039E0274A93
:10393000D388274A1289233A91B2254AD2880A3A73
:1039400090B24FF4784200F0F7FD224880781F498A
:103950008979CDE900101F4803781722092140F228
:10396000E170FEF7ABFD1DE0184A1389184AD289B1
:10397000233A91B2164A92890A3A90B24FF47842A9
:1039800000F0DAFD1148007A12494978CDE90010BB
:10399000104803781722092140F2E170FEF78EFDEE
:1039A00000E000BF00BF0020014908700EBD00000C
:1039B0003D0000206A000020E800002052000020A6
:1039C000400100201C01002076010020340100206D
:1039D000640100208801002010B56FF00400FFF79B
:1039E00087F9104800681049B0FBF1F00F490870E2
:1039F0000C4800680C49B0FBF1F44FF47A70444372
:103A000001200B4908804FF0E020006940F00200DF
:103A10004FF0E021086108464461006940F0010070
:103A2000086110BD1400002000127A002800002058
:103A30002A00002070B5044601F036F9012811D0A3
:103A40000C480088844206DB0A48008894FBF0F5A5
:103A5000284600F055FF0748008894FBF0F100FB72
:103A6000114084B24FF47A7104FB01F000F004F8C5
:103A700070BD00002A00002070B5034600224FF000
:103A8000E02675690E4E367803FB06F400BF4FF052
:103A9000E026B16910E04FF0E026B06988420BD013
:103AA000884202D20E1A324402E02E1A0E443244E8
:103AB0000146A24200D300E0EDE700BF70BD000068
:103AC0002800002000BF054A128802F04002002AA8
:103AD000F9D0C2B2014B1B1D1A807047003801405B
:103AE00010B51021FE48FDF7E0FC012811D040215F
:103AF000FB48FDF7DAFC01280BD08021F848FDF7E0
:103B0000D4FC012805D02021F548FDF7CEFC012882
:103B10007ED10A20FFF78EFF1021F148FDF7C5FC8A
:103B2000012815D10020EF490870EF48B0F92400B2
:103B3000072803DB4FF0FF30EB4988840120EB4975
:103B40000870E948808C401C00B2E7498884EBE1AA
:103B50004021E348FDF7A9FC01287DD10020E1497F
:103B60000870E148B0F90000642803DB4FF0FF3033
:103B7000DD4908800120DD490870DB480088401CD1
:103B800000B2D94908800846808C012812D1D84853
:103B90008188D548C180C088642802DB0021D248D2
:103BA000C180D148C088401C81B2CF48C180C08844
:103BB000CF498880CC48808C02281CD1CC48C08852
:103BC0000A2190FBF1F081B2C74801810089642885
:103BD00002DB0021C4480181C3480089401C81B236
:103BE000C1480181008900EB80004FF6FF7101EAB6
:103BF0004000BF49C880BC48808C052814D1BD480E
:103C00008188B9480182008A182804DB002100E07D
:103C100087E1B5480182B448008A401C81B2B248AD
:103C20000182008AB3498880AF48808C062812D16F
:103C3000B048C188AC484182408A3C2802DB002160
:103C4000A9484182A848408A401C81B2A6484182C6
:103C5000408AA849C88000E045E0A348808C072836
:103C600012D1A4480189A0488182808A3C2802DBC5
:103C700000219D4881829C48808A401C81B29A48DC
:103C80008182808A9B4908819748808C032812D1C1
:103C90009948818894488183808B182802DB002111
:103CA000914881839048808B401C81B28E488183EB
:103CB000808B914988808C48808C042812D18E4852
:103CC000C1888948C183C08B3C2802DB002186481B
:103CD000C1838548C08B401C81B28348C183C08B9F
:103CE0008549C88020E180217D48FDF7DEFB012861
:103CF0007ED100207B4908707B48B0F90000002885
:103D000002DC6420784908800120784908707648F0
:103D10000088401E00B2744908800846808C012843
:103D200012D1734881887048C180C088002802DCA5
:103D300064216D48C1806C48C088401E81B26A48C9
:103D4000C180C0886A4988806748808C02281CD15D
:103D50006748C0880A2190FBF1F081B26248018176
:103D60000089002802DC64215F4801815E480089E7
:103D7000401E81B25C480181008900EB80004FF653
:103D8000FF7101EA40005A49C8805748808C0528D5
:103D900012D15848818854480182008A002802DCE8
:103DA0001821514801825048008A401E81B24E4875
:103DB0000182008A4F4988804B48808C062812D1A6
:103DC0004C48C18848484182408A002802DC3C2196
:103DD000454841824448408A401E81B2424841825F
:103DE000408A4449C8804048808C072814D100E0AC
:103DF00041E0404801893C488182808A002802DCF9
:103E00003C21394881823848808A401E81B2364838
:103E10008182808A374908813348808C032812D1F7
:103E20003548818830488183808B002802DC182146
:103E30002D4881832C48808B401E81B22A48818383
:103E4000808B2D4988802848808C04286CD12A4892
:103E5000C1882548C183C08B002802DC3C21224850
:103E6000C1832148C08B401E81B21F48C183C08BD3
:103E70002149C88058E020211948FDF716FB012888
:103E800052D11A49087020211548FDF70EFB16493A
:103E9000C88417488088194988801548C088C88018
:103EA0000846C088898801EB4102C2EBC11100EBD2
:103EB000C1001249488010488088114988800E4806
:103EC000C088C8800C480089088108468088642121
:103ED000484348430A49C98801EBC10212E0000087
:103EE000000801406A000020E80000203D0000209A
:103EF00052000020340100201C0100204A00002054
:103F00001001002002EB011100EB81000849098932
:103F1000084407490860012006490870FFF710FCB3
:103F200002E0002004490870FFF780FC10BD00008B
:103F3000100100206A0000203D0000201CB5FFF7A2
:103F400095FB0748012100238022CDE9001005A13F
:103F5000074800F079FE00F07BFD00201CBD00004A
:103F60008400002073746172745F7461736B00006D
:103F7000854500082DE9F04105460E461C480768B6
:103F80001C480068001D00F0CFFB50B919480068BC
:103F900090F82C1001208840174909688143164881
:103FA0000160681C38B936B112480168091D134810
:103FB00000F0F8FB1AE07C190E4800684460BC422F
:103FC00007D20C480168091D0D48006800F0D0FBBD
:103FD0000CE008480168091D0A48006800F0C8FBA9
:103FE00009480068844201D207480460BDE8F081B6
:103FF0009C00002088000020A00000207802002003
:10400000900000208C000020B800002010B504466D
:1040100000F0D4FB24480068401C23490860234872
:10402000006840B9214804600846006801280DD1A5
:1040300000F030F90AE01E48006838B91B480068F3
:10404000C06AE16A884201D81848046019480068CB
:10405000401C1849086008460068606494F82C10F9
:104060000120884014490968084313490860E16A3F
:1040700001EB8101114A02EB8100211D00F092FB4E
:1040800000F0C6FB0A48006868B108480068C06ACA
:10409000E16A884207D24FF0805009490860BFF3B7
:1040A0004F8FBFF36F8F10BD980000208800002055
:1040B000A4000020B4000020A00000209C010020EB
:1040C00004ED00E070B523E000F006FD1348006841
:1040D00008B9012000E00020054600F099FEBDB9B6
:1040E00000F06CFB0D48C068C468201D00F01CFB8C
:1040F0000B480068401E0A4908600A480068401ED4
:104100000849086000F084FB204600F00DF800BF6D
:10411000044800680028D7D170BD00006402002068
:10412000980000209400002010B50446206B00F099
:104130008DFB204600F08AFB10BD000030B54FF427
:104140007053174800F007042CB1C01D20F0070081
:10415000134C041B1B1B0246124C22600024114D01
:104160006C60D018083820F007000F4C2060002445
:104170000D4D2D686C600C4D2D682C601146441A55
:104180004C60094C24680C60084D4C682C60084D4C
:104190004C682C604FF00044064D2C6030BD000090
:1041A0008C020020D0000020D8000020E000002079
:1041B000DC000020E400002000BFFFF783FF06487A
:1041C00000680128F9D94FF0805004490860BFF316
:1041D0004F8FBFF36F8FF0E79C01002004ED00E0EC
:1041E0002DE9F05F82460F4690469B460A9E0C9C46
:1041F0004FEA8801A522206BFCF7B6F8A8F1010070
:10420000216B01EB800929F0070909F0070008B9C3
:10421000012000E0002050B900BF302080F3118859
:10422000BFF34F8FBFF36F8F00BF00BFFEE70025C6
:1042300007E0795D04F134004155785D00B902E092
:104240006D1C102DF5D300BF002143200155072E12
:1042500000D30626E662E66400202065201D00F0FB
:1042600084FA04F1180000F080FA2461C6F1070016
:10427000A06164620020606584F858005A46514687
:10428000484600F047F920600B9808B10B9804608D
:10429000BDE8F09F10B5002407E004EB84010F4A4D
:1042A00002EB810000F054FA641C072CF5D30C4893
:1042B00000F04EFA0B4800F04BFA0B4800F048FAB9
:1042C0000A4800F045FA0A4800F042FA0448094951
:1042D000086004480849086010BD00009C010020E7
:1042E000280200203C02002050020020640200202E
:1042F000780200208C0000209000002010B50146BC
:10430000164800E0006803688B42FBD3024643680E
:1043100013448B4204D143684C68234443600146F4
:104320000A464B6813440468A34211D10C4C03683D
:104330002468A34208D04B680468646823444B6037
:1043400003681B680B6005E0054B1B680B6001E010
:1043500003680B60884200D0016010BDD0000020CF
:10436000D80000200A490968096809B9012100E05C
:10437000002121B14FF0FF31064A116006E00449E7
:104380000968C968C868034A41681160704700003D
:104390008C000020B80000200E480068401C08B9BE
:1043A000012000E0002050B900BF302080F31188C8
:1043B000BFF34F8FBFF36F8F00BF00BFFEE700BF9B
:1043C000302080F31188BFF34F8FBFF36F8F00BF92
:1043D00000BFFEE7C40000202DE9F04104464FF085
:1043E000000800F079FB4648006808B9FFF7A6FE10
:1043F00044480068204000286BD1D4B1083404F050
:104400000700B0B104F00700C0F10800044404F054
:10441000070008B9012000E0002050B900BF30209B
:1044200080F31188BFF34F8FBFF36F8F00BF00BFC2
:10443000FEE7002C4DD034480068844249D8334E02
:104440003046056801E02E462D686868A04202D219
:1044500028680028F7D12A480068854239D030689A
:1044600000F10808286830606868001B102819D916
:104470002F1907F0070008B9012000E0002050B90B
:1044800000BF302080F31188BFF34F8FBFF36F8FD1
:1044900000BF00BFFEE76868001B78606C603846AC
:1044A000FFF72CFF184968680968081A1649086060
:1044B0000846006816490968884203D21248006815
:1044C000134908600F49686809680843686000205C
:1044D000286000F09DFC08F0070008B9012000E00A
:1044E000002050B900BF302080F31188BFF34F8FF8
:1044F000BFF36F8F00BF00BFFEE74046BDE8F0810D
:10450000D8000020E4000020DC000020D0000020C3
:10451000E0000020001F4FF080730360001F21F0B7
:1045200001030360001F034B03601438026020384E
:1045300070470000994300082DE9F84305460E46F0
:1045400017461C460A2094FBF0F000F0FF080A20F2
:1045500094FBF0F100FB114000F0FF0900233A4604
:1045600031462846CDF80080FDF7A4F805F1180182
:1045700088B200233A463146CDF80090FDF79AF80C
:10458000BDE8F8831CB5044600F018F91248032171
:1045900000238022CDE9001010A1134800F054FB45
:1045A0001248032100234FF40062CDE9001010A14E
:1045B000124800F049FB1248042100230A02CDE909
:1045C000001010A1124800F03FFB1248006800F0F4
:1045D000C5F900F01DF91CBD2C0000204C45445FBE
:1045E0007461736B00000000D51B000844000020BC
:1045F00053686F775F7461736B0000004129000896
:10460000400000204B65795F7461736B000000000F
:10461000B91700088400002010B51648007838B398
:1046200015480078154988801549888012484078D7
:104630001249C8801249C8800F4880780F49088104
:104640000F490881084680886421484348430C4943
:10465000C98801EBC10202EB011100EB810008499E
:104660000989084406490860084607C8FEF7C0F9EA
:1046700010BD00006A0000208801002034010020E5
:104680002801002010B586B00446012144F2040040
:10469000FDF7C4FC4FF40070ADF8140003208DF852
:1046A000160018208DF8170005A91D48FCF772FEAA
:1046B0004FF48060ADF8140004208DF8170005A9B0
:1046C0001748FCF767FE25208DF8000004208DF8C0
:1046D000010003208DF8020001208DF803006846D8
:1046E000FDF744FC01940020ADF80800ADF80A0085
:1046F000ADF80C00ADF810000C20ADF80E0001A9CB
:104700000848FEF72BFF012240F225510548FEF72D
:10471000FFFE01210348FEF7C5FE06B010BD0000F4
:10472000000801400038014001460A69D1E9013022
:104730009860D1E9010358605068884201D18868C7
:104740005060002008611068401E106010687047BB
:1047500000F1080141604FF0FF31816000F1080174
:10476000C160016100210160704700210161704753
:1047700010B502460B685C1C0CB9106907E002F129
:10478000080000E04068446824689C42FAD9446804
:104790004C604C68A160886041600A611468641CC8
:1047A000146010BD42684A6093688B6093685960DA
:1047B0009160086103685B1C0360704700BF302094
:1047C00080F31188BFF34F8FBFF36F8F00BF0E4888
:1047D0000068401C0C49086008460068012812D196
:1047E0000A480068C0B208B9012000E0002050B9B2
:1047F00000BF302080F31188BFF34F8FBFF36F8F5E
:1048000000BF00BFFEE77047C400002004ED00E0D9
:104810000D48006850B900BF302080F31188BFF305
:104820004F8FBFF36F8F00BF00BFFEE706480068E1
:10483000401E054908600846006820B9002080F342
:10484000118800BF00BF7047C400002070B5064645
:104850003546002E3FD0083D2C461F496068096848
:10486000084008B1012000E0002050B900BF30200E
:1048700080F31188BFF34F8FBFF36F8F00BF00BF6E
:10488000FEE7206808B9012000E0002050B900BF11
:10489000302080F31188BFF34F8FBFF36F8F00BFBD
:1048A00000BFFEE70C4960680968084098B12068BD
:1048B00088B90949606809688843606000F00CF9AC
:1048C0000649606809680844044908602046FFF703
:1048D00015FD00F09DFA70BDE4000020DC00002012
:1048E000064800684FF47A71B0FBF1F0401E4FF0BB
:1048F000E021486107200861704700001400002093
:1049000070B504460025D4B11248006808B90120EA
:1049100000E0002050B900BF302080F31188BFF3C1
:104920004F8FBFF36F8F00BF00BFFEE700F0D4F8DA
:1049300000212046FFF71EFB00F06AFA05463DB94C
:104940004FF0805004490860BFF34F8FBFF36F8F63
:1049500070BD0000C000002004ED00E070B5054609
:10496000FFF72CFF15B93048006800E028460446E0
:10497000201DFFF7D9FE78B9E06A00EB80002B49D3
:1049800051F8200040B994F82C10012088402849A3
:104990000968814326480160A06A18B104F1180033
:1049A000FFF7C2FE23480068401C224908601E48E9
:1049B0000068844209D1211D1F48FFF7F3FE1F48FC
:1049C0000068401C1D49086009E01D480068401E41
:1049D0001B4908602046FFF7A7FBFFF7C3FCFFF762
:1049E00017FF18480068E8B10F480068844219D1E1
:1049F0001548006808B9012000E0002050B900BF48
:104A0000302080F31188BFF34F8FBFF36F8F00BF4B
:104A100000BFFEE74FF080500C490860BFF34F8F96
:104A2000BFF36F8F70BD0000880000209C01002044
:104A3000A0000020B40000206402002094000020A8
:104A400098000020A4000020C000002004ED00E039
:104A50001CB51A4800210B468022CDE9001018A190
:104A6000194800F0F1F80446012C15D100BF3020A0
:104A700080F31188BFF34F8FBFF36F8F00BF4FF0EC
:104A8000FF301249086001201149086000201149D7
:104A9000086000F06FF810E0601C08B1012000E031
:104AA000002050B900BF302080F31188BFF34F8F32
:104AB000BFF36F8F00BF00BFFEE71CBDBC0000202E
:104AC00049444C4500000000B9410008B8000020EE
:104AD000A40000209C00002002480068401C0149FE
:104AE00008607047C00000201D48006818B1012010
:104AF0001C49086032E000201A4908601A48006822
:104B0000B0FA80F0C0F11F0101EB8100174A52F8A2
:104B1000200008B1012000E0002050B900BF302083
:104B200080F31188BFF34F8FBFF36F8F00BF00BFBB
:104B3000FEE701EB81020D4B03EB820042685268F5
:104B4000426000F108024368934202D14268526811
:104B500042604268D268064B1A6000BF704700008E
:104B6000C0000020AC000020A00000209C0100201C
:104B7000880000201CB52248014609780191FF21D8
:104B8000024611700146097800919DF8001001F06D
:104B900030011C4A117007211B4A116009E01A49B3
:104BA0000968491E184A11609DF800104906090E4F
:104BB00000919DF8001001F080018029EFD012498A
:104BC00009680902104A11601146098801F4E06180
:104BD00011600B4A019911700C48006840F4700094
:104BE0000A4908600846006840F070400860FFF716
:104BF00077FE002006490860FBF706FB00201CBD7D
:104C000000E400E0C8000020CC00002020ED00E01F
:104C1000C400002010B500BF302080F31188BFF31E
:104C20004F8FBFF36F8F00BF00F04EF818B14FF0F9
:104C300080500449086000BF002080F3118800BF45
:104C400010BD000004ED00E02DE9FF4F85B0804667
:104C500089461746DDE912ABB800FFF7BDFB0646F3
:104C600056B15C20FFF7B8FB04460CB1266304E0A4
:104C70003046FFF7EBFD00E000247CB10020CDE9D9
:104C800000ABCDE902403A4649464046089BFFF753
:104C9000A7FA2046FFF7BAF9012501E04FF0FF35EA
:104CA000284609B0BDE8F08F0549096809B9012017
:104CB00005E00449096809B9022000E000207047B6
:104CC000A4000020C00000202DE9F0414FF00008B2
:104CD00044480068002877D143480068451C424892
:104CE000056015BB41480068006808B9012000E074
:104CF000002050B900BF302080F31188BFF34F8FE0
:104D0000BFF36F8F00BF00BFFEE738480768384821
:104D10000068364908603648076036480068401C1D
:104D200034490860FFF71EFB00BF33480068854226
:104D30003CD300BF2D480068006808B9012000E09E
:104D4000002020B14FF0FF302B4908602DE02748AC
:104D50000068C068C4686668B54202D2264806602A
:104D600023E0201DFFF7E0FCA06A18B104F1180051
:104D7000FFF7DAFC94F82C10012088401F490968DD
:104D800008431E490860E16A01EB81011C4A02EBFD
:104D90008100211DFFF706FD1A49E06A0968C96A0A
:104DA0008842C7D34FF00108C4E700BF1548006828
:104DB000C06A00EB8000124951F82000012801D997
:104DC0004FF0010805E0FFE70F480068401C0E495E
:104DD00008600E48006808B14FF001084046BDE881
:104DE000F0810000C00000209C0000208C0000200A
:104DF00090000020B0000020B8000020A00000209B
:104E00009C01002088000020A8000020AC000020A9
:104E100070B5002400263648006850B900BF302025
:104E200080F31188BFF34F8FBFF36F8F00BF00BFB8
:104E3000FEE7FFF7C3FC2E480068401E2C490860BF
:104E40000846006800284FD12A48006800284BD047
:104E500024E02948C068C46804F11800FFF764FC26
:104E6000201DFFF761FC94F82C1001208840234995
:104E70000968084321490860E16A01EB8101204A81
:104E800002EB8100211DFFF78DFC1E49E06A0968D5
:104E9000C96A884202D301201B490860164800688D
:104EA00008B9012000E000200028D2D00CB1FFF7A3
:104EB00059FA1648056865B100BFFFF705FF10B144
:104EC0000120114908606D1E002DF6D100200F4908
:104ED00008600D48006838B1012630070C490860A9
:104EE000BFF34F8FBFF36F8FFFF792FC304670BD5B
:104EF000C00000209800002050020020A0000020E8
:104F00009C01002088000020AC000020A8000020A8
:104F100004ED00E010B500290AD00878002807D079
:104F200005487844FBF7E0FD002801D0002010BDC3
:104F30000248784410BD0000DA390000D239000080
:104F40000808A0F500114FEA3101704743004FEA0D
:104F5000D30C4FEA3C0C43401FBF40070CF160519B
:104F600013F0FE4F70471CF0006F03D100200CF0CF
:104F7000004170470CF0004343EA507010B540EA1E
:104F8000CC0000F0E8F900BF000000924FEA0001F9
:104F9000FFF7D6BF4FF000414FF00000A1F5002110
:104FA0007047000090EA010F48BF81F0004100F116
:104FB0002482421A3CBF801A89184FEAD0524FF01F
:104FC0007F4C1CEA410FA2EBD15318BF9CEA026F41
:104FD00000F03B804FF0004C4CEA00204CEA0121ED
:104FE00021FA03FC10EB0C0C1ED202F1FF325FEA37
:104FF0001C2040EBC25038BF70471CF07F0F4FEAB7
:10500000400C18BFBCF17F4F38BF7047C3F120037D
:10501000994008BF20F00100BCF17F4F38BF7047B6
:10502000A0F1C04000F0DDB94FEA3C00000A40EBBF
:10503000C25028BF1CF0FF0F4FEA400CE6D018BF4B
:10504000BCF17F4F38BF7047EAE79CEA026F05D09A
:1050500010EA5C0F08BF00F00040704710B500F088
:105060007AF900BF64FBBE3E4FF47F0C1CEAD012FD
:105070001EBF1CEAD11392EA0C0F93EA0C0F00F04A
:10508000858090EA010F48BF42F4807240F4000C22
:1050900041F400002CF07F4120F07F4000B58142B8
:1050A000A2EB03020FF2081CACEB504EC0F1000063
:1050B0009EF800E04FEA4E0E00FB0EFC38BF4900A0
:1050C0004FEA2C1C02F5FA020CFB0EF34FEACE1E3F
:1050D0004FEA112C4FEAC1210EEB635E42EB2242F4
:1050E0000EFB0CFC4FEA1C5300FB03114FEA112C82
:1050F0004FEA01310EFB0CFC4FEADC4C00FB0C11BB
:10510000C14228BF09184CEB03335DF804EB10EBE8
:10511000410143EBC250B2F57C0F38BF704729D52F
:1051200012F0F00F1CBF00F1C04000F000407047CB
:10513000008182838485868788898B8C8D8E8F9170
:105140009293959697999A9C9D9FA0A2A3A5A7A894
:10515000AAACAEB0B2B3B5B7B9BCBEC0C2C5C7C9C0
:10516000CCCED1D4D7D9DCDFE2E6E9ECF0F3F7FA24
:10517000FE0000004FEA400C0CF1807CBCF17E4F39
:1051800028BF7047B0F1C04000F02BB990EA010F82
:105190000CEAD11348BF42F48072624538BF6345C0
:1051A00007D213F47F0F16D080EA010000F0004010
:1051B000704710B500F0CFF8097EFC3E00F005B84E
:1051C00080EA010000F00040704780EA010000F032
:1051D000004000F006B912F47F0F04BF0248704788
:1051E00080EA010000F0FDB80000C07FC10DD1F1E0
:1051F0009E0206DB4FEA002343F0004323FA02F04D
:105200007047004207D54FEA4001B1F1FE4F02D28C
:105210004FF00000704710B500F09DF849922480CF
:10522000002070476FEA200070470000B0FA80F35A
:1052300010FA03F2C3F19D030AD0D90501EB122045
:10524000530638BF704700F1010008BF20F001008D
:10525000704700004FF47F0C1CEAD0121EBF1CEAFE
:10526000D11392EA0C0F93EA0C0F00F0478090EAFA
:10527000010F48BF42F480724FF0004C4CEA00200E
:105280004CEA012102EB0302A0FB0113A2F500028C
:10529000002918BF43F001035B0028BF4FEA330326
:1052A00042EB22425FEA132C4CEBC2502EBFBCEB08
:1052B000436FB2F57C0F70474FEA036CBCF1004FAF
:1052C00008BF20F00100B2F57C0F38BF70470BD546
:1052D00082F0FF0212F5803FC8BF704700F1C04066
:1052E000D8BF00F00040704700F5000C5FEA4C0C9E
:1052F00048BF7047B0F1C04000F073B890EA010FAA
:105300000CEAD11348BF42F48072624538BF63454E
:1053100004D280EA010000F00040704710B500F0B0
:105320001AF800BF8900013E00F007B800F009B884
:105330005FEA410C5FEA1C6C08D080EA010000F0D3
:1053400050B85FEA400C5FEA1C6CF6D14FF00040A9
:10535000A0F5800070470EF1020E2EF0030E5EF8ED
:10536000044B244204D44FEA4102B2F17F4F11D8DA
:105370004FEA4003B3F17F4F0CD80ED14FEAD07CF7
:10538000B2F17F4F0CEB4C0C0CF1020C08BF4CEB54
:10539000D17C04E04FF0080C01E04FEAD17C0CEB2B
:1053A0004C0324FA03F404F00704B4F1040C06D20D
:1053B0000EEB840CBDE810404CF0010C6047DFE8B8
:1053C0000CF0070802024FF00040A0F5800010BD6D
:1053D0000846420018BFD2F1807288BF00F000403A
:1053E00010BDFF2141EAD050C005704790EA010F7F
:1053F00048BF81F000413FF5DCAD421A04D882F08D
:105400000042A0EB020011444FEAD0524FF07F4C13
:105410001CEA410FA2EBD15318BF9CEA026F4AD09D
:105420004FF0004C4CEA00204CEA012121FA03FC29
:10543000B0EB0C0C0FD412F0FE0F36D05FEA4C002C
:105440001DD5001240EBC25038BF70471CF03F0F13
:1054500018BF70470BE0A2F101025FEA1C2040EB8D
:10546000C25038BF70471CF07F0F18BF7047C3F1A0
:105470002003994014BF401E20F0010070478008AF
:105480004FEA122308BF7047B0FA80FCA2EB0C026F
:10549000CCF1280C60FA0CF093EA122F04BF00EB59
:1054A000C25070474FEAC3707047130A5FEADC10BE
:1054B00008BF7047F6E79CEA026F04D010EA5C0F61
:1054C00008BF0020704710B5FFF745FF40DFF63EEC
:1054D00081F000407047FBF72AB800000000000090
:1054E000000000000000000000000010101010106C
:1054F0001010101000001010000000006C6C24242C
:10550000000000000100000000000024242424FE0C
:1055100048484848FC909090900000103C5492906D
:10552000503814121292547810000000225C94A893
:10553000481010242A525488000000003048485077
:10554000206E54948C888A74000000003030101053
:1055500000000000000000000000000408101020FF
:10556000202020202010100804000080402020105F
:105570001010101010202040800000000000105477
:105580003810385410000000000000000010101007
:1055900010FE1010101000000000000000000000BD
:1055A00000000000000010102000000000000000BB
:1055B00000FE0000000000000000000000000000ED
:1055C00000000000000010100000000004040808A3
:1055D000101020204040808000000000384482826B
:1055E0008282828282824438000000001070101093
:1055F000101010101010107C00000000384482823F
:1056000004081020408284FC00000000384482021C
:10561000043804020282443800000000040C141410
:1056200024244444FE04040E00000000FC8080801A
:10563000B8C4820202828478000000003C4282806A
:10564000B8C4828282824438000000007E42820414
:10565000040808081010101000000000384482826E
:1056600044384482828244380000000038448282F8
:105670008282463A02824438000000000000101086
:1056800000000000101000000000000000001010DA
:1056900000000000001010200000000000000618AC
:1056A000608060180600000000000000000000009C
:1056B000FE0000FE00000000000000000000C030FE
:1056C0000C020C30C000000000000038448282024E
:1056D0000408101010001010000000003844829AD6
:1056E000AAAAAAAAAA9680423C000000101010287C
:1056F000282844447C4444EE00000000FC4242421E
:10570000427C4242424242FC000000003C44828013
:10571000808080808282443800000000F844424249
:1057200042424242424244F800000000FC444240EF
:10573000447C4440404244FC00000000FC444240A1
:10574000447C4440404040F000000000344C8280E3
:1057500080808E8484844C3400000000EE444444F5
:10576000447C4444444444EE000000007C1010108B
:10577000101010101010107C000000003E080808E7
:10578000080808080888887000000000EE444848AF
:1057900050605048484444EE00000000E040404063
:1057A00040404040404244FC00000000C6446C6C55
:1057B0006C545454444444EE00000000CE446464ED
:1057C0006454544C4C4C44E4000000003844828241
:1057D000828282828282443800000000F844424281
:1057E00042447840404040E000000000384482825B
:1057F0008282828282BA443C02000000F048444423
:1058000044487048444444E6000000003C44828020
:1058100040300C0202824478000000007C54921058
:10582000101010101010103800000000EE44444416
:10583000444444444444443800000000EE4444449A
:10584000442828282810101000000000EE4454546A
:10585000545454542828282800000000EE444428BA
:1058600028101028284444EE00000000EE4444288C
:105870002828101010101038000000007E44840802
:1058800008102020408284FC0000001C1010101022
:1058900010101010101010101C000000EE44545492
:1058A000FE545454282828280000007010101010AE
:1058B00010101010101010107000003048840000FC
:1058C00000000000000000000000000000000000D8
:1058D0000000000000000000FE000040200000006A
:1058E00000000000000000000000000000000000B8
:1058F0007884047C84848C7600000000C0404040A2
:105900005864424242426458000000000000000017
:105910003844808080804438000000000C04040477
:10592000344C848484844C36000000000000000065
:10593000788484FC80808478000000001824202073
:10594000F82020202020207000000000000000002F
:105950003A444478807C82827C000000C040404011
:1059600058644444444444EE000000001010000019
:10597000301010101010103800000000101000003F
:10598000301010101010109060000000C040404017
:105990005C485060504844EE000000003010101089
:1059A000101110101010103900000000000000004D
:1059B000ACD29292929292D60000000000000000B9
:1059C00058E44444444444EE000000000000000059
:1059D00038448282828244380000000000000000C7
:1059E000D864424242645840E000000000000000D9
:1059F000364C8484844C34040E0000000000000007
:105A00006C302020202020700000000000000000EA
:105A100078888460188444780000000000202020EA
:105A2000F8202020202024180000000000000000A2
:105A3000C64242424242463A0000000000000000D6
:105A4000EE44442828281010000000000000000048
:105A5000EE444454542828280000000000000000B0
:105A6000EE442810102844EE000000000000000062
:105A7000EE444428281010A0C000000000000000E0
:105A80007E448810204284FC0000000C101010108E
:105A900010601010101010100C00001010101010DA
:105AA0001010101010101010100000C02020202026
:105AB0002018202020202020C0000000000000002E
:105AC00000728C00000000000000000000000000D8
:105AD0001FE000003FF000003FF000001FE0000169
